:020000040800F2
:1000000058120020050100083B2600088323000841
:10001000392600084108000855300008000000009B
:10002000000000000000000000000000CD2D0008CE
:100030004308000800000000D12A0008CF2D000866
:100040001F0100081F0100081F010008152C0008EF
:100050001F0100081F0100081F0100081F01000800
:100060001F0100081F0100081F0100081F010008F0
:100070001F0100081F0100081F0100081F010008E0
:100080001F0100081F0100081F0100081F010008D0
:100090001F0100081F0100081F0100081F010008C0
:1000A0001F0100081F0100081F0100081F010008B0
:1000B000552E00081F0100081F0100081F0100083D
:1000C0001F0100081F0100081F0100081F01000890
:1000D0001F0100081F0100081F0100081F01000880
:1000E0001F0100081F0100081F010008DFF810D0E1
:1000F00000F0FEFA004800473D3A0008AFF30080E8
:10010000581200200648804706480047FEE7FEE7F1
:10011000FEE7FEE7FEE7FEE7FEE7FEE7FEE7FEE7B7
:10012000532E0008ED000008202A04DB203A21FAB3
:1001300002F00021704721FA02F3D040C2F1200200
:100140009140084319467047D2B201E000F8012BF4
:10015000491EFBD270470022F6E710B513460A4647
:1001600004461946FFF7F0FF204610BD2DE9FE4F6B
:10017000804681EA0300C00F0C46009021F0004148
:1001800023F00045B8EB0200A94105D240462146C4
:1001900090461C460B46024623F00040104347D0D1
:1001A000270DC7F30A00C3F30A510290401A0190C9
:1001B00040286BDAC3F3130040F4801B009892468A
:1001C00020B10023D2EB030A63EB0B0B01985946D5
:1001D000C0F14002504600F0DDF906460D4650469B
:1001E0005946019A00F0E5F910EB0800614100243E
:1001F00087EA115284EAE7731A4340D0009A62B347
:10020000019A012A4FEA075215DC001B61EB02013B
:100210004FF0004202EA0752CDE90042001C41F5CE
:10022000801132462B4600F0E5F903B0BDE8F08FAF
:1002300040462146F9E7001B61EB0201001C41F535
:10024000801300185B412018A2F5001747EB03014B
:1002500040EAD570B6196D4111E06D084FEA3606D7
:1002600045EAC0754FEA0752001B61EB0201001C12
:1002700041F5801149084FEA3000001951413246DA
:100280002B4603B0BDE8F04F00F0A5B9009801225D
:1002900040000023D0EB020263EBE073009821469C
:1002A0004FEAE074B8EB000061EB0401E9E783F08A
:1002B00000435BE781F0004158E72DE9FE4F81EAFA
:1002C000030404F0004421F0004100944FF0000BBF
:1002D00023F0004350EA01045ED052EA03045BD0ED
:1002E000C3F30A54C1F30A552C44A4F2F334019425
:1002F000A0FB0254C1F3130141F48011C3F31303B3
:1003000043F4801301FB024400FB034E840A970A66
:1003100044EA815447EA8357A4FB076802958D0A93
:1003200005FB07854FEA932C04FB0C542705029D1F
:100330004FEA065847EA1637B5EB08056EEB070C8F
:10034000870E920E47EA811742EA8312A7FB020149
:10035000B6EB0B0164EB00042B0D43EA0C335E1883
:1003600044EB1C50DA465146E7FB0201C5F3130487
:100370004FEA0B3343EA14534FEA0432019C43EA39
:100380000603A4F10C040294009CCDE900B400F033
:1003900031F903B0BDE8F08F00200146F9E72DE9FF
:1003A000F04D81EA030404F0004B21F000451446AF
:1003B0004FF0000A23F0004150EA050220D054EA31
:1003C00001021DD0C5F30A570246C5F31303C1F35A
:1003D0001300C1F30A5640F4801543F48013A7EBD1
:1003E0000608101BD64608F2FD3873EB050002D351
:1003F00008F1010801E092185B41B8F1000F03DA3F
:1004000000200146BDE8F08D00204FF48011064623
:1004100084460EE0171B73EB050705D3121B63EB35
:10042000050306434CEA010C49084FEA30009218D4
:100430005B4150EA0107EDD152EA030012D082EA93
:10044000040083EA0501084305D0101BAB4106D226
:100450000122002306E000224FF0004302E06FF08B
:10046000010253101AEB06004CEB085110EB0A0086
:1004700041EB0B01BDE8F04D00F0ADB80EB540F218
:10048000334102910021CDE900110A460B4600F0EC
:10049000B1F803B000BD70B5C1F30A5201F00045D8
:1004A0000024C1F3130140F2FF3341F480119A425A
:1004B00001DA002070BD40F233439A42A2F2334287
:1004C00003DC5242FFF730FE00E090402C43F1D0B5
:1004D000404270BDC1F30A5210B5C1F3130140F29E
:1004E000FF3341F480119A4201DA002010BD40F23E
:1004F00033439A42A2F2334203DC5242FFF714FE26
:1005000010BD904010BD30B50B46014600202022A2
:10051000012409E021FA02F59D4205D303FA02F510
:10052000491B04FA02F52844151EA2F10102F1DC70
:1005300030BD2DE9F05F0546002092469B46884677
:100540000646814640241BE028464146474622464F
:10055000FFF7EAFD53465A46C01A914110D311469F
:100560001846224600F016F82D1A67EB01084F4690
:1005700022460120002100F00DF817EB00094E4142
:10058000201EA4F10104DFDC484631462A464346DA
:10059000BDE8F09F202A04DB203A00FA02F1002097
:1005A00070479140C2F1200320FA03F319439040B1
:1005B0007047202A06DBCB17203A41FA02F043EAC3
:1005C000E07306E041FA02F3D040C2F1200291400C
:1005D00008431946704710B5141E73F1000408DA79
:1005E000401C41F1000192185B411A4301D120F0F7
:1005F000010010BD2DE9F04D92469B4611B1B1FAB4
:1006000081F202E0B0FA80F220329046FFF7C2FF9A
:1006100004460F4640EA0A0041EA0B0153465A4697
:10062000084313D0114653EA010019D0C8F1400223
:100630005046FFF779FD05460E465046594642465C
:10064000FFF7A8FF084305D0012004E02046394603
:10065000BDE8F08D0020054346EAE0762C433743A1
:100660000A986305E40AA0EB08000022FD0A44EAA8
:1006700047540A3002D500200146E9E70105101968
:100680006941DDE9084500196941BDE8F04DA2E77F
:10069000C1F30A52C1F3130140F2FF3341F4801158
:1006A0009A4202DA00200146704740F233439A42F0
:1006B000A2F2334202DC5242FFF736BDFFF76ABFB7
:1006C00030B5041E71F1000404DB4FF000444042D9
:1006D00064EB0101141E73F1000405DB1C464FF0AE
:1006E0000043524263EB0403994208BF904230BD7D
:1006F000064C074D06E0E06840F0010394E807006F
:1007000098471034AC42F6D3FFF7F4FCE4570008E6
:100710000458000870B58C1810F8015B15F0070339
:1007200001D110F8013B2A1106D110F8012B03E08A
:1007300010F8016B01F8016B5B1EF9D12B0705D492
:100740000023521E0DD401F8013BFAE710F8013BDB
:10075000CB1A921C03E013F8015B01F8015B521EF7
:10076000F9D5A142D8D3002070BD000070B5044671
:1007700000688168C943C90717D1816821F0010168
:10078000816000F0E3FB05460AE000BF00F0DEFBFD
:10079000401B022804D920688068C043C00706D0E7
:1007A00020688068C043C007F0D0002070BDA06AF8
:1007B00040F01000A062E06A40F00100E062012019
:1007C00070BD0000F8B500260446009600688168F8
:1007D000C943C9072DD0816841F0010181601648E5
:1007E00016490068B0FBF1F000E0401E00900028C0
:1007F000FBD100F0ABFB054616E000BF00F0A6FB06
:10080000401B022810D920688068C043C0070BD065
:10081000A06A40F01000A062E06A40F00100E062CF
:1008200084F824600120F8BD20688068C043C007B8
:10083000E4D10020F8BD00006408002040420F0011
:10084000FEE7704772B6FEE7F8B50025044600954E
:1008500090F82400012808D0012084F824002046C4
:10086000FFF784FF060002D053E00220F8BDA06A23
:1008700020F4885040F00200A062022000F002FC48
:1008800026490968B1FBF0F0400000E0401E0090EE
:100890000028FBD12046FFF795FF2068816841F0D2
:1008A0000801816000F052FB074608E000F04EFBB3
:1008B000C01B0A2803D920688068000715D4206867
:1008C00080680007F2D42068816841F004018160EB
:1008D00000F03CFB074612E000F038FBC01B0A2882
:1008E0000DD920688068400709D5A06A20F0020071
:1008F00040F01000A06284F824500120F8BD206868
:1009000080684007E8D4A06A20F0020040F00100AF
:10091000A06284F824503046F8BD0000640800202E
:10092000F8B50024009490F824202546012A12D01E
:10093000012280F824204A681F23072A0DD2066866
:10094000776B521E02EB820293409F430B689340E9
:100950001F43776319E00220F8BD06680D2A0AD20A
:10096000376BD21F02EB820293409F430B68934088
:100970001F43376309E0F76A0D3A02EB82029340A6
:100980009F430B6893401F43F7620A68072306687A
:100990000A2A0AD3F7680A3A02EB420293409F43BD
:1009A0008B6893401F43F76008E0376902EB42020F
:1009B00093409F438B6893401F4337610A68102A16
:1009C00001D0112A20D1124B02689A4217D19368A4
:1009D0001B0219D4936843F400039360096810293B
:1009E00012D10C490C4A0968B1FBF2F101EB81010B
:1009F000490000E0491E00910029FBD104E0816A12
:100A000041F020018162012480F824502046F8BD85
:100A1000002401406408002040420F000068C06CC0
:100A2000704700002DE9F0414FF0000704003D46FB
:100A30007ED0A06A002628B9E66284F824602046A9
:100A400000F07EF82046FFF791FEA16AC90600D4A7
:100A500020B1A06A40F01000A06269E0A16A21F410
:100A6000885141F00201A1626268E169237B0A4377
:100A700047EA43010A43A1684FF48077B94209D09D
:100A8000012907D05FF0000194F814C0BCF1010FF8
:100A900002D00AE03946F7E7F3B1A36A43F0200336
:100AA000A362E36A43F00103E3622368D3F804C05E
:100AB0002CF4694C4CEA010CC3F804C021688B6823
:100AC000DFF870C003EA0C0313438B60A168B942DE
:100AD0000BD0012909D00CE0DFF85CC0A3690CEB56
:100AE00043330B4343F40061DFE7218A0D05A5F58D
:100AF00080152168CB6A23F470032B43CB622168F5
:100B000089680E4B1940914208D1E662A16A21F032
:100B1000020141F00101A162BDE8F081A06A20F06C
:100B2000020040F01000A062E06A40F00100E062C4
:100B30000120F1E7FDF7E1FF00E0FFFFFE0E1FFFE0
:100B400000B585B0002100910191029103910068E8
:100B50000E49884218D10E48816941F400718161C3
:100B6000816901F400710491816941F0040181619E
:100B70008069694600F00400049002200090032080
:100B80000190044800F0E0F805B000BD00240140E9
:100B9000001002400008014070B5044690F824009F
:100BA00001280DD0012084F824002046FFF70AFE1A
:100BB00002004FF0000005D084F82400104670BDFC
:100BC000022070BDA16A40F20123994341F4807173
:100BD000A1621F4D23681F49AB4218D10E6816F45D
:100BE000702F14D0A66A46F48016A6620E687605A9
:100BF00005D5A66A26F4005646F48056A662A66A73
:100C0000F6040AD5E66A26F00606E66206E0A66A5B
:100C100026F48016A6625E68E9E7E06284F82400A4
:100C20006FF00200186020688368C3F34243072B0B
:100C300005D1A84208D1096811F4702F04D0816849
:100C400041F480118160B9E7816841F4A001F9E7BE
:100C5000002801400424014070B5044690F82400A7
:100C600001280DD0012084F824002046FFF7AAFDBA
:100C700002004FF0000005D084F82400104670BD3B
:100C8000022070BDA16A40F60163994341F480716E
:100C9000A162224D23682249AB4218D10E6816F496
:100CA000702F14D0A66A46F48016A6620E687605E8
:100CB00005D5A66A26F4005646F48056A662A66AB2
:100CC000F6040AD5E66A26F00606E66206E0A66A9B
:100CD00026F48016A6625E68E9E7E06284F82400E4
:100CE0006FF0020018602068436843F020034360FF
:100CF00020688368C3F34243072B05D1A84208D17B
:100D0000096811F4702F04D0816841F4801181606A
:100D1000B4E7816841F4A001F9E700000028014030
:100D20000424014070B5044600F010F90546601C2B
:100D300002D004480078044400F008F9401BA042A7
:100D4000FAD370BD580800202DE9F84FDFF8B891AC
:100D5000002409F1040A0AF1040B23460F270BF1C2
:100D6000040EC9E00125A5402A40AA427DD1674E64
:100D7000D1F804C0ACEB0608B44532D014DCBCF1A9
:100D8000030F3AD009DCBCF1000F2AD0BCF1010FEF
:100D90001CD0BCF1020F31D11DE0BCF1110F17D0F6
:100DA000BCF1120F2AD119E0B8F5881F19D006DC62
:100DB000B8F5803F15D0B8F5801F1FD111E0B8F508
:100DC000001F0ED0B8F5041F18D10AE0CB6815E05B
:100DD000CB681B1D12E0CB6808330FE0CB680C33E7
:100DE0000CE08B682BB1012B4FF0080303D0456159
:100DF00004E0042302E0056100E00023FF2A01D89B
:100E0000064601E000F104064FEA840501D9A5F188
:100E10002005D6F8008007FA05FC28EA0C0803FA3A
:100E200005F548EA0508C6F800804D68ED0062D572
:100E3000374DAE6946F00106AE61AD6924F0030698
:100E400005F001050095334D06EB050CDCF8085064
:100E5000A607360F07FA06F825EA0805DFF8B88076
:100E6000404503D14FF0000817E044E0DFF8AC80C4
:100E7000404502D14FF001080FE0DFF8A480404563
:100E800002D14FF0020808E0DFF89880404502D117
:100E90004FF0030801E04FF0040808FA06F848EAAA
:100EA0000508CCF808804D68D9F80060ED034D4680
:100EB00001D5164300E096432E604D68DAF80060D5
:100EC000AD03554601D5164300E096432E604D68AC
:100ED000DBF80060ED025D4601D5164300E0964365
:100EE0002E604D68DEF80060AD02754601D51643F0
:100EF00000E096432E60641C0D682A46E5407FF4AE
:100F000031AFBDE8F88F000000040140000011106F
:100F1000001002400000014000080140000C0140A8
:100F200000100140001401408068084000D00120FA
:100F30007047C26821EA02030A4043EA02410161A4
:100F400070470AB1016170470904FBE701488068F6
:100F50007047000058080020024881680278114458
:100F60008160704758080020074810B5016841F0BB
:100F700010010160032000F06DF80F2000F006F86A
:100F800000F024F8002010BD0020024070B50D4D87
:100F900004464FF47A712878B1FBF0F00A490968E9
:100FA000B1FBF0F000F0FBFE48B9102C07D2002294
:100FB0002146501E00F02EF800206C6070BD01200C
:100FC00070BD00005808002064080020094808B5DA
:100FD000816941F001018161816901F001010091A4
:100FE000C16941F08051C161C06900F0805000903A
:100FF00008BD000000100240002809DB00F01F02BD
:10100000012191404009800000F1E020C0F800116A
:1010100070470000F0B40E4B1B680C46C3F302236C
:10102000C3F10705042D00D90425191D072901D294
:10103000002300E0DB1E012606FA05F1491E2140CF
:1010400099409E40761E16403143F0BC02F018B81D
:101050000CED00E0064900F0070208684FF6FF03B8
:10106000184040EA0220034A10430860704700001D
:101070000CED00E00000FA0501490120086270470C
:1010800000000E4210B529A401461DCC86B08DE8A3
:101090001D002AA02A4C006804900020012923D0BA
:1010A00002293AD010291DD161682268D20119D5D0
:1010B000C1F38342C9031DF8020009D5616804AA7F
:1010C000C1F34041515C1F4AB2FBF1F1484301E0DA
:1010D0001D4948436168490204D440005FF00301A0
:1010E000B0FBF1F006B010BD226AC2F30121012964
:1010F00003D1920701D5C803F4E7022905D1626A3A
:10110000920702D549F64040ECE70329EAD121686D
:101110008903E7D54FF22440E4E700F033F9616832
:10112000C1F38131491C4900DAE7000002030405DC
:10113000060708090A0B0C0D0E0F10100102000023
:101140000010024000127A0000093D002DE9F8432A
:1011500005460078354CC00754D0E0690026C00031
:1011600008D4E06940F08050E061E069012600F0B9
:10117000805000902E480168C90512D4016880464D
:1011800041F480710160FFF7E1FE074605E000BF12
:10119000FFF7DCFEC01B642823D8D8F80000C00588
:1011A000F6D5206A10F4407021D0A98801F440716E
:1011B00081421CD0206A1F49012220F440700A603D
:1011C00000220A602062C00711D0FFF7BFFE074669
:1011D00041F2883808E000BFFFF7B8FEC11B414567
:1011E00002D90320BDE8F883206A8007F4D5206A7D
:1011F000696820F44070084320621EB1E06920F065
:101200008050E0612878800705D56068A96820F4DF
:101210004040084360602878C00605D56068E968EA
:1012200020F48000084360600020DBE700100240EB
:1012300000700040400442422DE9F0470F4605008F
:1012400061D0434E306800F00700B84209D23068E0
:1012500020F0070038433060306800F00700B842E3
:1012600051D128683B4C810712D5400703D56068EF
:1012700040F4E06060602878000703D5606840F4BF
:10128000605060606068A96820F0F000084360600A
:101290002878C00728D06868012810D02168022863
:1012A00010D0890700292EDA616821F0030101437B
:1012B0006160FFF74BFE804641F288390DE02168FE
:1012C0008903EFE78901EDE7FFF740FEA0EB080196
:1012D000494502D90320BDE8F0876068696800F0DD
:1012E0000C00B0EB810FEFD1306800F00700B8427E
:1012F0000BD9306820F0070038433060306800F0C8
:101300000700B84201D00120E5E72878400705D55D
:101310006068E96820F4E0600843606028780007AE
:1013200006D56068296920F4605040EAC100606019
:1013300000F038F86168084AC1F30311515CC840F5
:101340000649086006480068FFF720FE0020C2E753
:101350000020024000100240CC5700086408002022
:101360005C0800200448054900684968044AC1F344
:101370000221515CC8407047640800200010024000
:10138000DC5700080448054900684968044AC1F36D
:10139000C221515CC8407047640800200010024020
:1013A000DC57000812A185B00FC98DE80F0014A00A
:1013B000144A006804905168134801F00C03042B90
:1013C00010D0082B0ED1C1F38343C9031DF80300CD
:1013D0000AD5516804AAC1F34041515C0A4A5043FE
:1013E000B0FBF1F005B0704708494843FAE7000048
:1013F00002030405060708090A0B0C0D0E0F101056
:10140000010200000010024000127A0000093D00B5
:101410002DE9F84F040070D02078C04DC00749D0A6
:101420006868C0F38100012807D06868C0F38100B4
:10143000022809D16868C00306D52868800339D519
:1014400060680028E7D035E06068B0F5803F0BD0D9
:1014500010B1B0F5A02F11D0286820F4803028609A
:10146000286820F4802002E0286840F4803028605A
:10147000606890B1FFF76AFD06460AE0286840F40C
:1014800080202860F0E700BFFFF760FD801B642824
:1014900073D828688003F7D50CE0FFF757FD0646A0
:1014A00005E000BFFFF752FD801B6428F0D82868D4
:1014B0008003F7D420789A4E80074FF001094FF04F
:1014C000000839D5686810F00C0F07D06868C0F3C1
:1014D0008100022809D16868C00306D42868800703
:1014E00014D52069012808D110E02069B0B1C6F8F0
:1014F0000090FFF72BFD074605E00AE1FFF726FD08
:10150000C01B0228C4D828688007F7D528686169FD
:1015100020F0F80040EAC10028600DE0C6F8008025
:10152000FFF714FD074604E0FFF710FDC01B02287B
:1015300023D828688007F7D4207800072CD579486D
:10154000A169D9B1C0F80090FFF700FD074604E09B
:10155000FFF7FCFCC01B02280FD8686A8007F7D58C
:1015600071484FF4FA510068B0FBF1F0009000BFF1
:101570000098411E0091FAD20EE080E0C0F8008091
:10158000FFF7E4FC074604E0FFF7E0FCC01B02287D
:1015900075D8686A8007F7D42078400760D5E86975
:1015A0000027C00008D4E86940F08050E861E8698D
:1015B000012700F0805000905C480168C90513D4F1
:1015C0000168834641F480710160FFF7BFFC8246E9
:1015D00006E000BFFFF7BAFCA0EB0A0064284ED873
:1015E000DBF80000C005F5D5E06801280AD008B195
:1015F000052813D0286A20F001002862286A20F00C
:10160000040002E0286A40F001002862E06841F22C
:10161000883B98B1FFF79AFC82460BE0286A40F0BD
:1016200004002862EEE700BFFFF790FCA0EB0A0180
:1016300059455AD8286A8007F6D50CE0FFF786FC92
:10164000824605E0FFF782FCA0EB0A0159454CD821
:10165000286A8007F6D41FB1E86920F08050E8615D
:10166000E06988B36968C1F38101022944D0022886
:10167000C6F8608004D0FFF769FC044638E034E027
:10168000FFF764FC074604E0FFF760FCC01B02287C
:101690002BD828688001F7D4206AB0F5803F05D1A7
:1016A0006868A16820F4003008436860D4E9080144
:1016B0000843696821F4741108436860C6F86090B3
:1016C000FFF744FC044606E025E000BFFFF73EFCC0
:1016D000001B022809D828688001F7D51BE000BF4D
:1016E000FFF734FC001B022802D90320BDE8F88F65
:1016F00028688001F4D40EE00128F7D06868226AD7
:1017000000F48031914204D1616A00F47010884283
:1017100001D00120EAE70020E8E7000000100240C5
:1017200000004242800442426408002000700040F1
:101730007047704710B5044600680168C90717D0A4
:101740004168C90714D040684007204607D5FFF715
:10175000F0FF21686FF004004860042002E0FFF70A
:10176000E7FF012060742068416821F001014160B9
:1017700010BDF8B505004FF0000016460C4600906D
:1017800006D02CB100226946284600F019F808B1AD
:101790000120F8BD287B2070E87BE070697B6170D8
:1017A000A97BA17056B101F09DF9E070607801F05D
:1017B00099F96070A07801F095F9A0700020F8BD4B
:1017C0002DE9F04791460C465FEA00084AD084B301
:1017D000D8F800004068400744D4404601F027FA9A
:1017E0004FF461620546B0FBF2F1B0FBF2F302FB8D
:1017F00013503C23B0FBF3F0B5FBF2F6607002FB34
:101800001650B0FBF3F203FB1200A070182931D37D
:101810001820B1FBF0F7B1FBF0F200FB12102070C2
:10182000404601F0FDF9411C04D0A84202D9461BF4
:1018300002E017E04FF0FF36A7EB071000EB400087
:10184000C0EB001005EBC0152946404601F03EFAFA
:1018500040B9701C01D0711900E03146404601F0DA
:1018600021FA10B10120BDE8F0873946404601F069
:1018700044F900E02170B9F1000F0BD0207801F09D
:1018800031F92070607801F02DF96070A07801F0D6
:1018900029F9A0700020E6E770B5040003D0607C51
:1018A000002610B105E0012070BD2674204600F02E
:1018B00043F802206074204600F01AF9042578BB32
:1018C000204601F071F958BB2068416821F00701FA
:1018D0004160A06820B11748016821F00101016052
:1018E0001448001F0168A26821F46071114301606F
:1018F0006068411C04D10120FFF7C4FB80B1401E89
:1019000021688A6822F00F0242EA10428A60216848
:10191000CA6860F30F02CA60204601F05FF908B19F
:101920006574C0E7E67301206073A07360740020E3
:1019300070BD0000306C004008B500680D49884259
:1019400017D1FFF799FB0C48C16941F00061C161F3
:10195000C0690A4900F00060009001200860002280
:1019600011460320FFF756FBBDE808400320FFF7B0
:1019700043BB08BD00280040001002403C04424226
:101980002DE9F0410D4604003BD0C5B3207C012871
:101990003AD04FF0010884F8108002206074E87893
:1019A00072B301F096F8E073687801F092F8607312
:1019B000A87801F08EF8A073C2B2617BE07B01F0E1
:1019C00046F920732870204601F031F94FF4616127
:1019D000B0FBF1F1002518292DD91822B1FBF2F145
:1019E000A1EB011101EB4101C1EB011100EBC116AB
:1019F0003146204601F06AF90427C8B90BE000E03F
:101A000004E00120BDE8F0810220FBE7E073687884
:101A10006073A878CFE7204601F002F9411C0AD094
:101A2000B04208D206490144204601F03BF910B10A
:101A300067742574E5E784F8118025740020E1E7D8
:101A4000805101002DE9F0410D46040024D01DB362
:101A5000207C012823D04FF0010884F81080022058
:101A600060742878EAB101F034F84FF4616100FB4A
:101A700001F6687801F02DF8C0EB001006EB800647
:101A8000A87801F026F835182946204601F01EF9FD
:101A90000026042710BB0FE00120BDE8F0810220E2
:101AA000FBE74FF4616148436978C1EB011100EB3A
:101AB0008100A9784518E7E72068416821F0050111
:101AC0004160204601F0ACF8411C0AD0A84208D27F
:101AD00006490144204601F0E5F810B16774267408
:101AE000DAE784F8118026740020D6E780510100DF
:101AF00070B504000AD02068416821F008014160F7
:101B0000FFF724FA05464FF47A7608E0012070BD0D
:101B1000FFF71CFA401BB04201D9032070BD2068BA
:101B200040680007F4D5002070BD70B5040009D0EE
:101B3000606A002540B125616561A56294F8510095
:101B400040B10CE0012070BD6068B0F5827FF4D038
:101B5000E561F2E784F85050204600F03FF802209B
:101B600084F851002068016821F040010160A088DC
:101B7000218900F4827001F404410843A18901F431
:101B800000610843217C01F002010843217D01F03E
:101B900001010843218B01F400710843217F01F00A
:101BA0003801084394F8201001F080010843218D8A
:101BB00001F40051084321680860A069042101EA8A
:101BC0001040216848602068C16921F40061C1614A
:101BD0006565012084F85100002070BD00B585B016
:101BE0000021009101910291039100680F49884200
:101BF0001AD10F48816941F480518161816901F4F2
:101C000080510491816941F00401816180696946D4
:101C100000F004000490A020009002200190032016
:101C200003900448FFF790F805B000BD0030014074
:101C300000100240000801402DE9F84F044690F8DA
:101C4000500000271D461646894601280DD04FF04A
:101C5000010B84F850B0FFF779F9804694F85100F1
:101C6000BA46012804D0022793E00220BDE8F88F8D
:101C7000B9F1000F73D0002E71D0032084F8510009
:101C8000C4F854A0C4F83090A686E686C4F838A0FC
:101C9000A4F83CA0A4F83EA0C4F844A0C4F840A016
:101CA000A068B0F5004F09D12068016821F040011B
:101CB00001602068016841F480410160206801688A
:101CC000490603D4016841F040010160E068B0F5C5
:101CD000006F606803D030B3012E24D041E008B11A
:101CE000012E1CD1206B21680088C86006E02068A6
:101CF0008168890709D5216B0988C160206B801C28
:101D00002063E08E401EE08609E0FFF71FF9A0EB9C
:101D10000800A84202D3681C01D031E07DB3E08EF8
:101D20000028E4D120E0206B21680078087306E0E9
:101D300020688168890709D5216B09780173206BB8
:101D4000401C2063E08E401EE0860AE0FFF7FEF8AC
:101D5000A0EB0800A84203D3681C02D010E017E0F3
:101D60006DB1E08E0028E3D142462946204600F0BE
:101D7000C1FF08B120206065A06818B106E0FFE748
:101D8000032706E02068C16880680090606D00B19C
:101D9000012784F851B084F850A0384666E710B5A2
:101DA000401EB0F1807F01D3012010BD4FF0E02430
:101DB00060610F21601701F063F90020A061072026
:101DC0002061002010BD70477047000070B590F88A
:101DD0003C20012A26D0012480F83C40022280F8D1
:101DE0003D2003685A689D6822F070060A683243F5
:101DF0005A600D4B02689A4208D0B2F1804F05D06C
:101E00000A4B9A4202D00A4B9A4204D1496825F003
:101E100080031943916080F83D40002180F83C1018
:101E2000084670BD022070BD002C01400004004037
:101E30000008004010B5040003D094F83D0010B134
:101E400007E0012010BD002084F83C00204600F08F
:101E50001FF8022084F83D00211D206801F000F8E1
:101E6000012084F8460084F83E0084F83F0084F89E
:101E7000400084F8410084F8420084F8430084F86C
:101E8000440084F8450084F83D00002010BD0000A7
:101E900008B50068B0F1804F12D10A48C16941F01D
:101EA0000101C161C069002200F0010000901146EB
:101EB0001C20FFF7AFF8BDE808401C20FFF79CB8D6
:101EC00008BD00000010024090F83D10012901D02B
:101ED00001207047022180F83D100168CA6842F075
:101EE0000102CA6000680B49884208D0B0F1804FF7
:101EF00005D00949884202D00849884204D1816846
:101F000001F00701062903D0016841F001010160D9
:101F100000207047002C01400004004000080040F1
:101F200070B5044690F83C00012817D0012584F8CC
:101F30003C50022084F83D002068826822F077023D
:101F400022F47F4282600868502830D00DDC2028BF
:101F50004DD005DC98B310283BD148E0022070BD7D
:101F6000302844D0402834D139E0602828D0702867
:101F700006D0B0F5805F2CD0B0F5005F29D10AE023
:101F8000CB68D1E90121206800F0A0FF20688168BA
:101F900041F0770109E0CB68D1E90121206800F028
:101FA00095FF2068816841F48041816011E0CA6832
:101FB0004968206800F09CFF5021206807E016E087
:101FC000CA684968206800F0A4FF6021206800F01A
:101FD00087FF84F83D50002084F83C0070BDCA683B
:101FE0004968206800F084FF40212068EFE72268FC
:101FF00001461046EBE7704770B50446006801697A
:102000004FF00005C943890715D4C168C943890742
:1020100011D4E91E016101202077206880698007C2
:10202000204602D0FFF7E7FF04E000F098F82046D2
:1020300000F096F8257720680169C943490717D44D
:10204000C168C943490713D46FF00401016102203C
:1020500020772068806910F4407F204602D0FFF787
:10206000CAFF04E000F07BF8204600F079F82577FD
:1020700020680169C943090716D4C168C943090723
:1020800012D46FF008010161042020772068C06934
:102090008007204602D0FFF7AEFF04E000F05FF8B3
:1020A000204600F05DF8257720680169C943C9061C
:1020B00017D4C168C943C90613D46FF01001016178
:1020C000082020772068C06910F4407F204602D0A5
:1020D000FFF791FF04E000F042F8204600F040F8DE
:1020E000257720680169C943C90708D1C168C94378
:1020F000C90704D1891E0161204600F033F8206829
:102100000169C943090609D4C168C943090605D450
:102110006FF0800101612046FFF755FE20680169DC
:10212000C943490609D4C168C943490605D46FF0BB
:1021300040010161204600F03BF820680169C94375
:1021400089060BD4C168C943890607D46FF0200102
:1021500001612046BDE87040FFF736BE70BD704794
:10216000704700000068B0F1804F1DD10F48416CEE
:10217000491C4164642917D3016A491C0162416A00
:10218000491C416200214164C16B012904D1016CE9
:10219000002901DD491E0164816B012904D1816A96
:1021A000002901DD491E8162704700000000002007
:1021B000704770B5040004D094F83D00002510B1BC
:1021C00006E0012070BD84F83C50204600F022F863
:1021D000242084F83D002068C16821F40051C160CA
:1021E000204600F0A9FE2068016921F490410161B8
:1021F0002068416921F02A0141612068C16841F4E9
:102200000051C1602564202084F83D0084F83E0020
:10221000002070BD70B586B0002400940194029433
:10222000039403682648254E022103220515B34274
:102230001ED1836943F480438361836903F480433F
:102240000493836943F00403836180691D4E00F0A9
:10225000040004900802CDE900010392694630466B
:10226000FEF772FDCDE9005469463046029420E045
:10227000154EB3421FD1C36943F48023C361C369C0
:1022800003F480230493836943F008038361806926
:10229000CDE9005100F00800CDE903200B4D69465F
:1022A0002846FEF751FDE814CDE9000469462846AA
:1022B0000294FEF749FD06B070BD000000380140F1
:1022C000001002400008014000480040000C01409E
:1022D0002DE9F843044690F83D001F4616460D468A
:1022E00020284CD1C5B1BEB194F83C00012846D09D
:1022F000012084F83C004FF00008C4F84080212001
:1023000084F83D00FEF722FEA6848146E684A0689C
:10231000B0F5805F03D004E00120BDE8F8832069B8
:1023200028B12E465FF0000584F83C800EE00026C0
:10233000FAE78021204600F05BFEA0B9AEB116F8A6
:10234000010B21684860E08C401EE084E08C4B4625
:102350004FF0000200970028EBD14FF040012046DB
:1023600000F046FE30B10320D7E735F8020BC0F38A
:102370000800E6E7202084F83D000020CDE7022099
:10238000CBE7FEE73EB50024104800940194029488
:102390000D498460016004730475012505614FF4E3
:1023A00060214460C161FEF73DFB08B1FEF74AFAC7
:1023B0000095CDE9015469460448FEF7B1FA0028BA
:1023C00001D0FEF73FFA3EBD00240140E80C00209A
:1023D0002DE9F04F85B00024324800940194029416
:1023E0000394816941F010018161816901F010015C
:1023F0000491816941F020018161816901F020012E
:102400000491816941F004018161816901F0040155
:102410000491816941F0080181618069DFF8889049
:1024200000F008004FF40055049000222946484669
:10243000FEF787FDDFF874A042F25107002239460B
:102440005046FEF77EFDDFF868B04FF4807800223A
:1024500041465846FEF775FD009502260125039674
:10246000CDE9015469464846FEF76EFC0097039695
:10247000CDE9015469465046FEF766FC3020CDE9AF
:102480000004694658460294FEF75EFCCDF80080D1
:102490000396CDE9015469465846FEF755FC05B050
:1024A000BDE8F08F0010024000100140000801401C
:1024B000000C01401CB500241748019415490094F4
:1024C0000160611EC0E90114FFF7E6F908B1FEF7EB
:1024D000B9F98DF804408DF805408DF806400122C9
:1024E00001A90D48FFF7AEFA08B1FEF7ABF90120DC
:1024F0008DF800008DF801008DF8020002468DF87D
:10250000034069460448FFF73BFA002801D0FEF774
:1025100099F91CBD00280040180D0020104810B586
:102520000E4901604FF482714160002102228160F6
:10253000C0E9031201224261520282611822C0E9FD
:102540000721416281620A21C162FFF7EEFA002889
:1025500003D0BDE81040FEF775B910BD0030014052
:102560002C0D002010B586B000241648009401946C
:102570000294039404944FF080410594016010216B
:10258000C0E901144FF47A71C0E903148461FFF7C4
:1025900051FC08B1FEF756F94FF48050009069469F
:1025A0000848FFF7BDFC08B1FEF74CF9049404A9F4
:1025B00004480594FFF70AFC002801D0FEF742F911
:1025C00006B010BD840D00200C4810B50A4901600A
:1025D0004FF4E1314160002181600C22C160C0E90B
:1025E00004128161C161FFF7E4FD002803D0BDE85A
:1025F0001040FEF727B910BD00380140CC0D002077
:102600000C4810B50A4901604FF4E13141600021E6
:1026100081600C22C160C0E904128161C161FFF7D1
:10262000C8FD002803D0BDE81040FEF70BB910BD6F
:1026300000480040100E0020FEE7FEE730B4002105
:10264000084B0A465FF0000003EBC004401CC0B218
:1026500062548028F8D3491CC9B20829F2D330BC8F
:1026600000F012B968080020CA0801F00703012130
:102670009940044B03EBC003985C61EA0000C0433F
:1026800098547047680800202DE9F0430D4606462F
:10269000802A13D8402B11D896420FD89D420DD8CE
:1026A0005C1B96420CD1002706E0E819C1B2304607
:1026B00000F032F87F1CFFB2BC42F6DCBDE8F083CC
:1026C000971B9D420BD1002406E03019C0B2294669
:1026D00000F022F8641CE4B2A742F6DCEEE7E1B2B7
:1026E00001EB81014900F8B2B1FBF0F000F0FF0806
:1026F00000244FF00A090BE004FB08F0B0FBF9F0EE
:102700002844C1B23019C0B200F006F8641CE4B22B
:10271000A742F1DCD2E70000CA0801F0070301215B
:102720009940034B03EBC000835C0B438354704719
:1027300068080020F0B51D4616460F4604460B46B5
:10274000FFF7A2FF2B46324619462046FFF79CFFB3
:1027500022462B4639461046FFF796FF32462B4657
:102760003946BDE8F0401046FFF78EBF10B5414C2A
:10277000002201212046FEF7E4FBC820FEF7D2FA32
:10278000012211462046FEF7DCFB0021AE2000F0BE
:1027900079F90021084600F075F90021102000F0B9
:1027A00071F90021402000F06DF90021812000F036
:1027B00069F90021CF2000F065F90021A12000F087
:1027C00061F90021C82000F05DF90021A62000F089
:1027D00059F90021A82000F055F900213F2000F010
:1027E00051F90021D32000F04DF90021084600F0F6
:1027F00049F90021D52000F045F90021802000F0A2
:1028000041F90021D92000F03DF90021F12000F02C
:1028100039F90021DA2000F035F90021122000F00A
:1028200031F90021DB2000F02DF90021402000F0DB
:1028300029F90021202000F025F90021022000F0D4
:1028400021F900218D2000F01DF90021142000F055
:1028500019F90021A42000F015F90021A62000F0AC
:1028600011F90021AF2000F00DF9BDE81040FFF78D
:10287000E5BE0000000801400246012000E0504390
:10288000491EC9B2FBD2704770B5114E002400BF7B
:1028900004F1B000C0B2002100F0F4F800210846B5
:1028A00000F0F0F80021102000F0ECF85FF00005D7
:1028B00006EBC5000121005D00F0E4F86D1CEDB2EF
:1028C000802DF5D3641CE4B2082CE1D370BD000068
:1028D000680800202DE9FF4F1D460C468946580721
:1028E00000D0012000EBD50069084843203A00F0F1
:1028F000FF0A02F0FF0B002635E00C2D12D0102D40
:1029000014D0182D31D11A490BEBCB0001EB80000C
:102910004FF00008875D2146380600980AD5FFF77A
:10292000FBFE09E00BEB4B001249EFE7124901EB0C
:102930000B10EDE7FFF798FE7806641C070EE4B273
:10294000A4EB0900A84205D100984C46401CC0B237
:10295000009006E008F1010000F0FF08B8F1080F50
:10296000D9D3761CF6B25645C7D3BDE8FF8F000019
:10297000704A00080C400008804400082DE9F04728
:102980001D46DDF8208091468A46074600244FEA1E
:10299000580618E0281B401EC1B20A20FFF76CFF42
:1029A000B9FBF0F00A21B0FBF1F201FB120070B1AB
:1029B0003030C2B206FB0470C0B243465146FFF746
:1029C00089FF641CE4B2AC42E4D3BDE8F08706FBA7
:1029D0000470C0B243463022F0E72DE9F047984634
:1029E00017460C4682460026DDF8209011E021466D
:1029F000504600F032F8554607E019F8060001216C
:102A000000F040F86D1CEDB2761CBD42F5D3641C9D
:102A1000E4B24445EBD3BDE8F0872DE9F0411E4612
:102A2000154688460446C3F180070FE03346414609
:102A30002046FFF74FFF04EB5600C4B2A74204DA6A
:102A400008EB0600022400F0FF086D1C2A78A2F1B2
:102A500020005E28EAD9BDE8F08110B50446B03107
:102A6000C8B2002100F00EF8102040EA1410002136
:102A700000F008F804F00F00BDE81040002100F05D
:102A800001B8000073B5104D6C4609B1012200E099
:102A9000002210212846FEF754FA00224021284641
:102AA000FEF74FFAC823012221460848FFF7C4F871
:102AB000012240212846FEF744FA0122102128462F
:102AC000FEF73FFA7CBD0000000801402C0D0020FD
:102AD0007047010901EB810100F00F0000EB41009C
:102AE000C0B27047002102E00A38C0B2491C0A286F
:102AF000FAD2090740EA116070472DE9F041044617
:102B00000025C07B627BA37B42E0012A16D0032A0A
:102B100014D0052A12D0072A10D0082A0ED00A2A6B
:102B20000CD00C2A0AD0042A10D0062A0ED0092A6A
:102B30000CD00B2A0AD0022A0DD028E01F2B0CD370
:102B40000C2A05D101221346401C20E01E2B04D381
:102B50000123521C1BE01C2B02D203F1010316E0DF
:102B600011D183B29E0710D16426B3FBF6F706FBA2
:102B7000173636B94FF4C876B3FBF6F706FB1733B2
:102B80001BB91D2303E01D2B01D1032201236D1C62
:102B90008D42BAD3D1B2E0736173DAB2A27300F09E
:102BA00056F82073BDE8F08170B50446FEF7CEF903
:102BB00005464FF47A7606E0FEF7C8F9401BB042AE
:102BC00001D9032070BD206840688006F4D52068D4
:102BD000416841F010014160002070BD70B50446AD
:102BE0000068416821F010014160FEF7AFF9054629
:102BF0004FF47A7607E000BFFEF7A8F9401BB04219
:102C000001D9032070BD206840688006F4D50020FB
:102C100070BD00000148FEF78DBD0000180D0020BA
:102C20000168086A496A89B241EA00407047006851
:102C300081698AB2C1698BB2816989B28A4203D043
:102C4000C06961F31F40704743EA02407047F0B526
:102C50006424C1EBC1030927A500072603EB011378
:102C60000329B3FBF7F100F5FA60114401440AD2DD
:102C7000401EB0FBF4F201EB9001B0FBF5F0891AB5
:102C80000844001D08E0B0FBF4F201EB9001B0FB3A
:102C9000F5F0891A0844801CB0FBF6F106FB110020
:102CA000C0B2F0BD70B50D4606460024FFF77CFFAC
:102CB00048B93168280C08623168A8B248623046C9
:102CC000FFF78CFF00B10124204670BD70B50D46A2
:102CD00006460024FFF768FF48B93168280C886170
:102CE0003168A8B2C8613046FFF778FF00B101240F
:102CF000204670BD38B50B46009204460022802164
:102D000000F008F8002804D0606D40F020006065F5
:102D1000032038BD2DE9F8431E46914688460446F7
:102D2000089DFEF713F9401B351AFEF70FF9074609
:102D300025480068C0F3CB30684338E0701C37D0BA
:102D4000FEF704F9C01BA84203D215B1009860B386
:102D50002CE02068416821F0E00141606068B0F536
:102D6000827F0BD1A068B0F5004F02D0B0F5806F24
:102D700004D12068016821F040010160A06AB0F52B
:102D8000005F09D12068016821F4005101602068CA
:102D9000016841F400510160012084F851000020D5
:102DA00084F850000320BDE8F8830025401E009001
:102DB0002068816838EA010004D000214945BDD16E
:102DC0000020F0E70121F9E7640800207047FEF7D2
:102DD000C3B830B593B028216846FDF7BCF914217B
:102DE0000AA8FDF7B8F900240F94092000900121EA
:102DF0001094119412944FF480300491CDE90104A1
:102E00000225CDE90804CDE906156846FEF700FB6A
:102E100008B172B6FEE70F20CDE90A054FF48060D5
:102E2000CDE90C4000210AA80E94FEF705FA08B17E
:102E300072B6FEE703200F904FF40070CDE9100446
:102E40000FA8FEF783F9002801D072B6FEE713B091
:102E500030BD70470148FFF7CFB80000840D002057
:102E6000F0B50268164B174C174D4FF0804798424B
:102E700005D0B84203D0A04201D0A84203D122F02D
:102E800070064A683243984205D0B84203D0A04247
:102E900001D0A84203D122F44074CA6822434C698D
:102EA00022F08002224302608A68C2620A6882625B
:102EB000984201D10969016301214161F0BD00001F
:102EC000002C0140000400400008004010B5846858
:102ED00042EA032224F47F440A432243826010BD65
:102EE000826822F070020A4342F007018160704755
:102EF00010B5036A046A24F001040462846924F0B2
:102F0000F00444EA021423F00A020A4384610262D4
:102F100010BD10B5036A23F0100303628369046ACD
:102F200023F4704343EA023224F0A00343EA011180
:102F30008261016210BD000070B50446006801693D
:102F4000E26821F44051114301612169A0680843FE
:102F5000616908432168CA6841F20C639A430243DD
:102F6000CA6020684169A26921F44071114341613E
:102F70001E492068884202D1FEF704FA01E0FEF7FC
:102F8000F1F900EBC00101EB0012606864218000E0
:102F9000B2FBF0F3B3FBF1F36FF018067343B2FB2F
:102FA000F0F5B2FBF0F605EB8305322303EB0515D4
:102FB000B5FBF1F5B6FBF1F605F0F00505EB0615EE
:102FC000B2FBF0F6B2FBF0F0B0FBF1F06FF01802DC
:102FD000504306EB800003EB0010B0FBF1F02168DA
:102FE00000F00F002844886070BD000000380140E8
:102FF0002DE9F041984617460E460446069D1DE011
:10300000681C1BD02DB1FDF7A1FFA0EB0800A84262
:1030100014D92068C16821F4D071C1602068416969
:1030200021F001014161202084F83D0084F83E0038
:10303000002084F83C000320BDE8F081206800688F
:1030400036EA000004D00020B842D9D00020F3E7CF
:103050000120F9E7FEE700000FB4084B10B504A902
:1030600002AA039800F0EEF8044602A9002000F03E
:103070006CFC204610BC5DF814FB00004B390008C6
:103080000907090E002804DB00F1E02080F8001495
:10309000704700F00F0000F1E02080F8141D704729
:1030A00002E008C8121F08C1002AFAD17047704711
:1030B000002001E001C1121F002AFBD1704700006F
:1030C0002DE9FF5F82B00021DDE90430020DDDF85B
:1030D00040B0034318D044F61050A2F2FF324243EE
:1030E0001514119801281FD0A5EB0B00401C5FEAB6
:1030F000000A4FF000064E4FDFF83891B0465046B8
:1031000015D5CAF1000413E0119801244AA301283F
:1031100001D16FEA0B010298119AC0E90031C0E9B0
:10312000024206B0BDE8F09FCBF10000DFE70446A5
:103130000021404A491842EB0450CDE9001012E04A
:10314000E00707D032463B4640464946FDF7B5F812
:103150008046894632463B4610461946FDF7ADF893
:1031600006460F466410002CEAD1DDE90401DDE9D2
:103170000023BAF1000F06DAFDF79FF842464B46EE
:10318000FDF79BF805E0FDF70AF942464B46FDF7CF
:1031900006F904460E460022284BFDF791FA03D8A3
:1031A0004FF0FF30014607E00022254B2046314614
:1031B000FCF7DCFFFDF76CFA102409E0002C0ADBB9
:1031C0000A220023FDF7B5F9039B30321A55641E1D
:1031D00050EA0102F2D1641C039AC4F111031444B1
:1031E000119A012A03D0012208430DD10AE00843B5
:1031F00004D000204FF0110B119072E7A3EB0B05E8
:103200006D1E0DE05B4504DD4FF0000205F1010588
:1032100004E003DA4FF00002A5F10105002AECD02A
:1032200002981199C0E90231C0E9004579E7000030
:10323000000014400000F03F300000000000F043A8
:103240000000E03F2DE9FF4F95B09A4688460646BC
:103250000025EEE1252877D100242746F94A0121EF
:10326000039400E0044316F8013F203B01FA03F009
:103270001042F7D130782A2811D06FF02F03307820
:10328000A0F13002092A16D8039A44F0020402EB96
:10329000820203EB42021044761C0390EFE758F8D9
:1032A000042B0392002A03DA504244F400540390A2
:1032B00044F00204761C30782E2816D116F8010F3F
:1032C00044F004042A280DD06FF02F023078A0F1CA
:1032D0003003092B09D807EB870302EB4303C71818
:1032E000761CF3E758F8047B761C30786C280FD0F6
:1032F00006DC4C2817D068280DD06A2814D104E0C9
:10330000742810D07A280FD10DE044F400140AE09C
:1033100044F4801401E044F440147278824202D1F3
:1033200004F58014761C761C307866280BD013DCEC
:10333000582877D009DC002875D04528F6D04628D3
:10334000F4D047281AD193E118E0632835D06428D7
:1033500079D0652812D18BE1702873D008DC6728FA
:10336000F1D069286FD06E280DD06F2806D1ACE05F
:1033700073282CD0752874D0782853D052461799CA
:1033800090476D1C54E1C4F30250022809D0032871
:103390000DD0D8F8001004280DD00D6008F10408F5
:1033A00046E1D8F80010EA17C1E90052F6E7D8F86C
:1033B00000100D80F2E70D70F0E718F8041B8DF88F
:1033C000001000208DF80100EB46012003E058F8C2
:1033D00004BB4FF0FF3061074FF0000102D40DE055
:1033E00009F101018946B9420FDA8145F8DB1BF882
:1033F00009100029F4D108E009F101018946814250
:10340000FADB1BF809100029F6D103985346A0EB0C
:10341000090721463846179A00F080FA284400EB45
:10342000090507E044E008E10DE01BF8010B5246F6
:1034300017999047B9F10109F7D25346214638460A
:10344000179AF2E039E00A21C4F302524FF0000B60
:103450000091022A06D058F8040BC117032A09D09C
:103460000AE023E008F1070020F00702F2E8020179
:10347000904605E000B2C117042A01D140B2C1173D
:10348000002906DA0A460021404261EB02012D22A2
:1034900002E0220504D52B228DF80420012203E04E
:1034A000E20701D02022F7E7914657E00A2100E029
:1034B00010214FF0000B00910BE010214FF0000B9A
:1034C00044F004040827009103E008204FF0000BAB
:1034D0000090C4F30252022A05D058F8040B0021D0
:1034E000032A08D008E008F1070020F00702F2E8FC
:1034F0000201904603E080B2042A00D1C0B24FF02E
:10350000000922072AD53278702A07D0DDF800C0DA
:103510008CF0100C5CEA0B0C05D00EE040228DF80C
:103520000420012208E050EA010306D030238DF880
:1035300004308DF8052002229146009B83F0080399
:1035400053EA0B030AD150EA010201D1620705D503
:1035500030228DF804204FF001097F1E3278582A5E
:1035600004D039A20C920CAA02920BE03BA2F9E71C
:103570005B46009AFCF7DDFF0C9B9B5C029A521E97
:103580000292137050EA0102F2D1029804A9081ABB
:1035900000F1200B600702D524F4803400E00127FD
:1035A0005F4502DDA7EB0B0000E0002000EB0B0104
:1035B000009003984944401A0390E00306D4534610
:1035C0002146179A039800F0A9F90544002706E060
:1035D00001A85246C05D179990476D1C7F1C4F454E
:1035E000F6DBE0030CD553462146179A039800F00A
:1035F00095F9054404E030205246179990476D1C18
:103600000099481E00900029F5DC08E00298029914
:1036100052460078491C0291179990476D1CBBF1E6
:103620000001ABF1010BF1DC5BE100F065F9054451
:10363000761C307800287FF40DAE19B02846BDE81E
:10364000F08F00000928010030313233343536372D
:1036500038396162636465660000000030313233DE
:10366000343536373839414243444546000000007E
:10367000600700D4062708F1070020F00700F0E8F3
:103680000223804603F0004C5FEA0C0001D097A0B3
:1036900009E0200501D596A005E0E00701D095A03E
:1036A00001E0AFF24C001390307823F0004365281E
:1036B0000CD006DC452809D046281DD047287FD1EC
:1036C0003BE0662818D067287AD136E00021112F18
:1036D00001DB112000E0781CCDE9000104A90CA851
:1036E000FFF7EEFCDDE90D010C9A4FF0000B07F13E
:1036F0000109109200914EE04FF000400097CDE993
:10370000011004A90CA8FFF7DBFCDDE90D020C9BFE
:103710000F994FF0000B91461093009211B9791C4C
:1037200000EB0109B7EB090003D4C0F1FF3B07F13F
:103730000109A9EB0700019042E0012F00DA0127FF
:103740000021112F01DD112000E03846CDE90001F4
:1037500004A90CA8FFF7B4FCDDE90D010C9A009157
:103760004FF0000BB946109221070FD4009A4A453A
:1037700003DA914601E0A9F10109B9F1010F05DD74
:10378000109AA9F10101515C3029F4D0B84202DA53
:1037900010F1040F03DA0121CDE9011010E0002837
:1037A00003DC8344A9EB000102E0411C494500DD34
:1037B0008946A0EB0B00401C01904FF000400290A6
:1037C000200705D40198484502DB4FF0FF300190F7
:1037D00000208DF84B0002980DF14B07B0F1004F1F
:1037E00025D002200C902B200D90029800280CDA96
:1037F000404202902D200D9007E00A210298FCF72C
:1038000082FE3031029007F8011D0C99481E0C9081
:103810000029F2DC02980028EFD1791E0D9808707B
:10382000307800F0200040F0450007F8020D11A8A4
:10383000C01BC01D02901398007800B1012000EB5E
:103840000901019801EBE071029801440398401AC4
:10385000401E0390E00306D453462146179A03986E
:1038600000F05CF805441398007818B15246179997
:1038700090476D1CE00323D553462146179A0398C1
:1038800000F04CF805441BE0BBF1000F07DB00988B
:10389000584504DD1098179910F80B0001E01799AE
:1038A00030205246904701980BF1010B401E05F164
:1038B0000105019004D12E205246179990476D1CA6
:1038C000B9F10001A9F10109DEDC05E017F8010BEF
:1038D0005246179990476D1C0299481E0290002984
:1038E000F4DC53462146179A03989EE62D0000000B
:1038F0002B000000200000002DE9F04104460025C7
:103900001E461746880404D405E039462020B047F7
:103910006D1C641EF9D52846BDE8F0812DE9F04103
:10392000044600251E469046C80301D5302700E016
:103930002027880404D505E041463846B0476D1C71
:10394000641EF9D52846BDE8F0810A68531C0B6057
:103950001070704747200221491E11F0FF01FBD172
:10396000401E10F0FF00F6D17047000070B50A4D00
:1039700000244FF4005631462846FDF7DAFAFFF7E7
:10398000E9FF31462846FDF7D4FAFFF7E3FF641C50
:10399000C82CF0DB70BD0000001001402DE9F041A3
:1039A000234D044610212846FDF7BEFA214F4FF45F
:1039B000004648B120212846FDF7B6FA20B131462D
:1039C0003846FDF7B1FA78BB0A20FDF7ABF91021B4
:1039D0002846FDF7A9FA38B9FEF730FE0124224641
:1039E00021022846FDF7ADFA20212846FDF79CFA72
:1039F00010B9FEF723FE002431463846FDF794FA4D
:103A000028B9FEF71BFE0C49022400200860202183
:103A10002846FDF789FA38B910212846FDF784FABF
:103A200010B9FEF70BFE06242046BDE8F081000029
:103A3000000C0140000801402800002008B5FDF7F7
:103A400093FAFFF7C6F9FEF7C3FCFEF767FDFEF732
:103A5000BBFDFEF797FCFEF72DFDFEF7D1FDFEF74F
:103A600081FDFEF783FEFE48FEF72EFAFD48FCF7C7
:103A7000EBFEFC48FDF790F8DFF8ECA34FF07F0970
:103A80004FF480764FF0010B4FF00A08002500221A
:103A9000F549F648FDF794FEF34900224A31F34810
:103AA000FDF767FEF04CA41EE06807287DD2DFE832
:103AB00000F00493FD7CFC7CFB000021A120FEF7BC
:103AC000E1FF10270021042340F2E472084600972A
:103AD000FEF754FF1023E6A200212120FEF79DFFF0
:103AE000E14800974A300223427800212820FEF75F
:103AF00045FF00979AF80020022314210020FEF7CA
:103B00003DFF1023DBA214211846FEF786FF009725
:103B100014219AF8012002230846FEF72FFF1023F4
:103B2000D4A214212420FEF778FF00979AF80220EF
:103B3000022314212820FEF721FF3146CE48FDF74D
:103B4000F3F9002831D10021A120FEF79BFF0021CD
:103B5000042340F2E47208460097FEF70FFF10239B
:103B6000C3A200212120FEF758FFBF4800974A302A
:103B70000223427800212820FEF700FF9AF8002057
:103B80004FF002030C2A4FF014014FF00000009791
:103B900001D9A2F10C02FEF7F1FE1023B5A2142107
:103BA0001846FEF73AFF009700E0B2E014219AF8B9
:103BB000012002230846FEF7E1FE1023ADA21421E6
:103BC0002420FEF72AFF00979AF8022002231421EE
:103BD0002820FEF7D3FEBEE10021A120FEF752FF10
:103BE0002088FCF74BFC4FF06632A44BFCF765FBDA
:103BF0000022A34BFCF7D3FB0022A24BFCF75DFB9A
:103C00000022A04BFCF7CBFBFCF764FC10210091D9
:103C10000246002101230846FEF7B0FE10239AA2B7
:103C200000211420FEF7F9FE2088FCF727FC4FF056
:103C30006632924BFCF741FB0022914BFCF7AFFB45
:103C40000022924BFCF739FBFCF725FC474690FB22
:103C5000F7F108FB110210200090012300211E2023
:103C6000FEF78CFE2088FCF709FC4FF06632834B90
:103C7000FCF723FB0022824BFCF791FB0022814BD7
:103C8000FCF71BFBFCF707FC642190FBF1F201FB46
:103C9000120210200090012300212820FEF76EFE62
:103CA0002088FCF7EBFB02E0BEE0ABE032E0784AB4
:103CB000784BFCF702FB784A784BFCF7FBFA784A22
:103CC000784BFCF76CFB0022774BFCF74FFAFCF7C4
:103CD00001FC102102460091022320210020FEF762
:103CE0004DFE102371A200213220FEF796FE20889F
:103CF000B0F5E16F0DD9A0F5A06090FBF7F0A268D8
:103D0000233092FBF9F3C1B209FB1320C0B2FEF7D6
:103D100003FD20E1A0694F4601460A3090FBF7F20F
:103D200009FB1200C2B291FBF7F009FB1010C0B200
:103D30003C233221FEF7FEFCA0693C2301463C30C7
:103D400090FBF7F207FB1200C2B201F1320090FBC8
:103D5000F7F107FB1100C0B23221FEF7EBFCA069BE
:103D60003C2301466E3090FBF7F207FB1200C2B213
:103D7000643191FBF7F007FB1010C0B23221FEF75F
:103D8000D9FC2069E8B14A4800210090082380222C
:103D90000846FEF722FE6069401C60611E2801DDB6
:103DA00025616561E069401CE061052805DDA069C9
:103DB000801CC4E90605FEF741FCA06980280AD0F2
:103DC0000AE0294800215630009008238022084646
:103DD000FEF703FEE6E7A56131462748FDF7A4F8A4
:103DE00010B1206918B1B6E0C4F810B0B3E0A06912
:103DF000412190FBF1F201FB1200002801D10420C7
:103E0000E060A8E000210C232AA20846FEF705FE88
:103E10000C232AA220210020FEF7FFFD0021A12073
:103E2000FEF730FEA56296E0A16A48F6A04091FB3D
:103E3000F0F0E06291FBF8F04FF4616290FBF2F772
:103E400002FB17023C2091FBF8F192FBF0F291FB90
:103E5000F0F300FB1310C4E90C021027022331E039
:103E6000840D0020E80C002002000020180D002026
:103E70002D0000003A0000000008014066660A407C
:103E800000FEAF40000059402E000000000024401A
:103E9000B4D934E70C684A3FCDCCCCCCCCCC08406C
:103EA00022FDF675E09C713F00002E405600000098
:103EB0005804002047414D45000000004F56455230
:103EC00000000000002108460097FEF757FD102370
:103ED000AFF2600200211846FEF79FFD0097022313
:103EE00000211420226BFEF749FD3C237F22194656
:103EF0000020FEF7C9FB384F31463846FDF714F86D
:103F000008BB0120FCF70EFFC4F83CB03146384630
:103F1000FDF70AF8012808D0206C002810DC314693
:103F20003846FDF701F830B10AE0A06A0A30A06215
:103F3000C4E90F5807E0C4E90EB5FA20FFF716FDF3
:103F4000E06B0128E2D0A06A28B9FA20A563FFF748
:103F50000DFDC4F82880FEF797FCE068FFF71EFD12
:103F6000E0601E48FCF778FEA068401CA0607F2837
:103F700002D1FEF763FBA5602088FCF77FFA184AA0
:103F8000184BFCF79AF9184A184BFCF793F9184AA2
:103F9000184BFCF704FA0022174BFCF7E7F8C4E9CA
:103FA000140102460B4615A11648FFF755F8206A82
:103FB000642807DD42F21073042212491248FEF70A
:103FC00087F92562606A05287FF761AD0348FCF731
:103FD00025FD208065625AE500080140E80C0020BC
:103FE000B4D934E70C684A3FCDCCCCCCCCCC08401B
:103FF00022FDF675E09C713F00002E40256C660A9C
:104000000000000048000020100E0020000000000A
:104010000000000000000000000000003F40000021
:1040200000000000000030004000300040000000B0
:1040300009000BC03D000BC03D00090018C0244022
:104040007FE0224031800000180024C01B000D805A
:104050003240018003801C4027401C800740004004
:1040600010006000000000000000000000000000E0
:1040700000001F80204040200000402020401F8082
:1040800000000000090006001F8006000900000073
:10409000040004003F8004000400000000100060E1
:1040A0000000000000000000040004000400040000
:1040B00004000000000000400000000000000000BC
:1040C000002001C006003800400000001F80204092
:1040D000204020401F800000000010403FC00040F2
:1040E0000000000018C02140224024401840000079
:1040F00010802040244024401B80000002000D005E
:1041000011003FC0014000003C8024402440244076
:10411000238000001F80244024403440038000009E
:104120003000200027C03800200000001B80244001
:10413000244024401B8000001C0022C0224022405A
:104140001F80000000000000084000000000000088
:1041500000000000046000000000000000000400F7
:104160000A001100208040400900090009000900F0
:104170000900000000004040208011000A000400F7
:104180001800200023402400180000001F80204059
:10419000274029401F400000004007C039000F00A1
:1041A00001C0004020403FC0244024401B8000004C
:1041B0001F802040204020403080000020403FC031
:1041C000204020401F80000020403FC024402E405F
:1041D00030C0000020403FC024402E0030000000CE
:1041E0000F001080204022403380020020403FC05A
:1041F000040004003FC02040204020403FC0204039
:10420000204000000060202020203FC0200020002F
:1042100020403FC024400B0030C0204020403FC021
:1042200020400040004000C03FC03C0003C03C00B4
:104230003FC0000020403FC00C4023003FC0200092
:104240001F802040204020401F80000020403FC0B1
:1042500024402400180000001F802140214020E05D
:104260001FA0000020403FC02440260019C000408D
:1042700018C02440244022403180000030002040FB
:104280003FC020403000000020003F800040004040
:104290003F80200020003E0001C0070038002000C1
:1042A000380007C03C0007C038000000204039C07B
:1042B000060039C0204000002000384007C03840C8
:1042C00020000000304021C02640384020C00000BF
:1042D000000000007FE0402040200000000070004F
:1042E0000C000380004000000000402040207FE0E0
:1042F000000000000000200040002000000000003E
:10430000001000100010001000100010000000004D
:104310004000000000000000000002800540054051
:1043200003C0004020003FC0044004400380000060
:1043300000000380044004400640000000000380A9
:10434000044024403FC00040000003800540054079
:1043500003400000000004401FC02440244020000F
:10436000000002E0055005500650042020403FC0E8
:104370000440040003C000400000044027C0004087
:104380000000000000100010041027E000000000F2
:1043900020403FC00140070004C0044020402040AE
:1043A0003FC000400040000007C0040007C00400F8
:1043B00003C00000044007C00440040003C00040E4
:1043C000000003800440044003800000041007F054
:1043D00004500440038000000000038004400450A7
:1043E00007F00010044007C0024004000400000071
:1043F000000006400540054004C000000000040025
:104400001F8004400040000004000780004004407A
:1044100007C000400400070004C00180060004003B
:10442000060001C0070001C006000000044006C0ED
:10443000010006C0044000000410071004E00180E1
:10444000060004000000044005C0064004400000CF
:104450000000000004007BE040200000000000009D
:104460000000FFF000000000000040207BE004009E
:1044700000000000400080004000200020004000BC
:10448000000000000000000000000000000000002C
:104490000000000000001FCC000C00000000000025
:1044A00000000800300060000800300060000000DC
:1044B000022003FC1E20022003FC1E20022000001C
:1044C00000000E1811043FFF10840C78000000005B
:1044D0000F0010840F3800C007781884007800009F
:1044E00000780F8410C411240E9800E400840008A2
:1044F00008006800700000000000000000000000DC
:1045000000000000000007E018182004400200002E
:10451000000040022004181807E00000000000001E
:104520000240024001800FF0018002400240000082
:104530000080008000800FF8008000800080000074
:104540000001000D000E000000000000000000004F
:1045500000000080008000800080008000800080DB
:104560000000000C000C0000000000000000000033
:1045700000000006001800600180060018002000FE
:10458000000007F0080810041004080807F00000F5
:104590000000080408041FFC0004000400000000E0
:1045A00000000E0C10141024104411840E0C000096
:1045B00000000C1810041104110412880C70000083
:1045C000000000E00320042408241FFC0024000055
:1045D00000001F981084110411041088107000004E
:1045E000000007F00888110411041888007000000A
:1045F00000001C00100010FC13001C001000000044
:1046000000000E3811441084108411440E3800004C
:1046100000000700088C10441044088807F00000D0
:10462000000000000000030C030C0000000000006C
:104630000000000000010106000000000000000072
:10464000000000800140022004100808100400004F
:10465000022002200220022002200220022000006C
:10466000000010040808041002200140008000002F
:1046700000000E001200100C106C10800F000000E3
:1046800003E00C1813E4142417C4082807D0000012
:104690000004003C03C41C40074000E4001C00046C
:1046A00010041FFC1104110411040E880070000096
:1046B00003E00C1810041004100410081C10000073
:1046C00010041FFC100410041004080807F0000078
:1046D00010041FFC1104110417C410040818000072
:1046E00010041FFC1104110017C010000800000086
:1046F00003E00C181004100410441C780040000063
:1047000010041FFC10840080008010841FFC100423
:104710000000100410041FFC10041004000000002E
:1047200000030001100110011FFE10001000000026
:1047300010041FFC110403801464181C10040000F2
:1047400010041FFC1004000400040004000C00000E
:1047500010041FFC1F0000FC1F001FFC10040000C1
:1047600010041FFC0C04030000E010181FFC1000D4
:1047700007F00808100410041004080807F00000EF
:1047800010041FFC10841080108010800F000000A7
:1047900007F0081810241024101C080A07F2000063
:1047A00010041FFC1104110011C011300E0C000484
:1047B00000000E1C11041084108410441C380000EA
:1047C0001800100010041FFC100410001800000056
:1047D00010001FF810040004000410041FF810005B
:1047E00010001E0011E0001C007013801C0010005F
:1047F0001FC0103C00E01F0000E0103C1FC0000084
:104800001004180C163401C001C01634180C100422
:1048100010001C00130400FC13041C001000000016
:104820000804101C1064108413041C0410180000E9
:104830000000000000007FFE400240024002000035
:10484000000030000C0003800060001C000300002A
:1048500000004002400240027FFE00000000000015
:104860000000000020004000400040002000000048
:104870000001000100010001000100010001000130
:104880000000400040002000000000000000000088
:1048900000000098012401440144014400FC00048C
:1048A00010001FFC00880104010400880070000053
:1048B0000000007000880104010401040088000069
:1048C0000000007000880104010411081FFC0004AE
:1048D000000000F8014401440144014400C8000004
:1048E0000000010401040FFC110411041100180060
:1048F000000000D601290129012901C90106000093
:1049000010041FFC008401000100010400FC0004ED
:1049100000000104190419FC000400040000000058
:104920000000000300010101190119FE0000000050
:1049300010041FFC0024004001B4010C010400001D
:104940000000100410041FFC00040004000000001C
:10495000010401FC0104010001FC0104010000FC50
:10496000010401FC008401000100010400FC0004BA
:10497000000000F8010401040104010400F8000033
:10498000010101FF0085010401040088007000009E
:1049900000000070008801040104010501FF00010E
:1049A0000104010401FC00840104010001800000F5
:1049B000000000CC012401240124012401980000FE
:1049C00000000100010007F80104010400000000DC
:1049D000010001F8000400040004010801FC0004C7
:1049E000010001800170000C0010016001800100D5
:1049F00001F0010C003001C00030010C01F0010099
:104A000000000104018C00740170018C010400009D
:104A1000010101810171000E001801600180010097
:104A200000000184010C013401440184010C0000E8
:104A3000000000000000000001003EFC40024002B7
:104A40000000000000000000FFFF00000000000068
:104A50000000400240023EFC010000000000000097
:104A60000000600080008000400040002000200026
:104A70000000000000000000000000000000000036
:104A80000000000000000000000000000000000026
:104A90000000000000000000000000000000000016
:104AA0000000000F80380FFE380F80380000000033
:104AB00000000000000000000000000000000100F5
:104AC000000600000C000038000031000006000065
:104AD0000C00003800003000000000000000000062
:104AE00061800067F807F9800061800061800061E3
:104AF000800061800067F807F98000618000000095
:104B000000000000000001C0E003E0F006300804EF
:104B100018081FFFFE040E080787F00381E000005D
:104B20000000000001F000060C00040408060C70F0
:104B300001F9C0000E00003BE000EC180708080473
:104B40000C180003E00000000001E00007F003F88B
:104B500018041C0804170807E1D003C0E00023B0C4
:104B6000003C0800200800001000000000000001C8
:104B700000003100003200001C00000000000000B6
:104B80000000000000000000000000000000000025
:104B90000000000000000000000000000000000015
:104BA0007F0001FFC00780F00C00181000042000F7
:104BB000020000000000002000021000040C001899
:104BC0000780F001FFC0007F00000000000000002F
:104BD000000000000000000000000000420000662D
:104BE00000006600003C0000180003FFC000180031
:104BF000003C00006600006600004200000000006B
:104C0000080000080000080000080000080001FF7C
:104C1000C0000800000800000800000800000800AC
:104C200000000000000100003100003200001C0004
:104C30000000000000000000000000000000000074
:104C4000000000000000000008000008000008004C
:104C5000000800000800000800000800000800002C
:104C60000800000800000000000000000000000034
:104C7000380000380000380000000000000000008C
:104C80000000000000000000000000000000000024
:104C9000000600001C000070000180000E000038BB
:104CA0000000C0000700001C0000300000000000F1
:104CB000000000007F8001FFE00380700600180400
:104CC000000804000806001803807001FFE0007F60
:104CD0008000000000000000000001000801000842
:104CE00001000803FFF807FFF800000800000800B3
:104CF000000800000000000000000001C03802C0F1
:104D000058040098040118040218040418061C181A
:104D100003F81801E0F800000000000000000001A6
:104D2000C0E003C0F00400080408080408080618DE
:104D30000803F41801E7F00001E0000000000000A3
:104D4000000000000300000D0000110000610000E1
:104D5000810803010807FFF80FFFF80001080001B0
:104D6000080000000000000000E007FCD006080872
:104D7000061008061008061008061838060FF00678
:104D800007C0000000000000000000003F8001FF9D
:104D9000E003843002081804100804100804100806
:104DA000071810030FF00007C0000000000000000B
:104DB000000003C0000700000600000600F8060718
:104DC000F806180006E000070000060000000000DA
:104DD00000000001E1E003F7F006341004180804B5
:104DE0001808040C08040C0806161803F3F001C197
:104DF000E000000000000000F80003FC300306386B
:104E00000402080402080402080404100308F00164
:104E1000FFC0007F00000000000000000000000054
:104E2000000000000000000070380070380070388A
:104E30000000000000000000000000000000000072
:104E4000000000000000000000000000301A0030E8
:104E50001C00000000000000000000000000000036
:104E60000000000000000008000014000022000004
:104E70004100008080010040020020040010080072
:104E800008000000000000002100002100002100B7
:104E9000002100002100002100002100002100006D
:104EA00021000021000000000000000000000800B8
:104EB0000804001002002001004000808000410032
:104EC00000220000140000080000000000000003A1
:104ED000C00004C000040000080038080F380808AB
:104EE000380810000C300007E00003C0000000008C
:104EF000000000003F8000FFE0038070020F1006FA
:104F0000708804C088048308047F8802C09003016D
:104F10002000FE400000080000180001F8003E08D4
:104F200001C20007020007E20000FE00001FC800E7
:104F300001F800003800000804000807FFF807FF28
:104F4000F8040808040808040808040808061808F3
:104F500003F41801E7F00001E00000000000000089
:104F60003F8001FFE0038070020018040008040085
:104F7000080400080400100600200780C00000009C
:104F800004000807FFF807FFF804000804000804FD
:104F9000000804001802001003807001FFE0007F89
:104FA0008000000004000807FFF807FFF804080865
:104FB000040808040808040808043E080400080659
:104FC000001801006000000004000807FFF807FF58
:104FD000F8040808040800040800040800043E005F
:104FE0000600000600000180000000000000000034
:104FF0003F8001FFE00380700600180400080402EF
:10500000080402080203F00783F000020000020017
:1050100004000807FFF807FFF8040808000800006C
:10502000080000080000080004080807FFF807FF50
:10503000F804000800000000000004000804000854
:1050400004000807FFF807FFF8040008040008043C
:105050000008000000000000000000000006000042
:105060000700000104000104000104000307FFFE23
:1050700007FFFC040000040000040000040008070F
:10508000FFF807FFF8040C08001800003E0004C7F2
:10509000800503C80600F804003804001800000862
:1050A00004000807FFF807FFF804000800000800E4
:1050B00000080000080000080000080000180000B8
:1050C0006000000004000807FFF807800807FC00E4
:1050D000007FC00003F80007C000780007800807C1
:1050E000FFF807FFF804000804000807FFF80700AE
:1050F0000803C00000E000003800001E00000700A8
:105100000001C00400F007FFF804000000000000E8
:105110007F8001FFE003807006001804000804008F
:105120000806001803003001FFE0007F8000000047
:1051300004000807FFF807FFF8040408040400044B
:105140000400040400040400060C0003F80001F04D
:1051500000000000000000007F8001FFE00380707D
:105160000600880400880400C806003C03003E01D5
:10517000FFE6007F8400000004000807FFF807FF37
:10518000F8040808040800040C00040F00040BC015
:105190000610F003F03801E00800000800000001EC
:1051A000E0F803F030063010041808041808040C66
:1051B00008040C080206180207F00781E00000004E
:1051C000018000060000040000040000040008073D
:1051D000FFF807FFF80400080400000400000600C0
:1051E0000001800004000007FFE007FFF004001842
:1051F0000000080000080000080000080000080483
:10520000001007FFE004000004000006000007E0B3
:105210000007FE00041FE00001F80000380001E074
:10522000043E0007C0000600000400000400000760
:10523000E00007FFC0041FF80007C007F80007FFE1
:1052400080043FF80007C004F800070000040000D5
:1052500000000004000806001807C07805F1C80027
:105260003E00001F800463E80780F8060018040071
:105270000800000004000006000007800007E008A6
:10528000047C08001FF80007F800180804E008076D
:1052900000000600000400000000000100080600F5
:1052A000380400F80403E8040F08047C0805F0083B
:1052B00007C008070018040060000000000000009C
:1052C00000000000000000000000003FFFFE200082
:1052D0000220000220000220000220000200000044
:1052E00000000000000008000007000000C00000EF
:1052F00038000006000001C000003000000E000071
:105300000100000000000000000020000220000258
:105310002000022000022000023FFFFE00000000EB
:10532000000000000000000000000000000000007D
:1053300000080000100000300000200000300000D5
:105340001000000800000000000000000000010044
:105350000001000001000001000001000001000048
:105360000100000100000100000100000100000137
:1053700000000000000000000020000020000010DD
:10538000000010000000000000000000000000000D
:10539000000000000000000000F00019F8001B18D9
:1053A000002208002608002408002410003FF8000E
:1053B0001FF800000800001800000004000007FFAC
:1053C000F80FFFF00018180010080020080020084F
:1053D000003018001FF0000FC000000000000000A7
:1053E00007C0001FF000183000200800200800202F
:1053F00008003C08001C10000060000000000000D5
:105400000000000007C0001FF0003818002008004E
:10541000200800200804101007FFF80FFFF000001C
:10542000100000000000000000000007C0001FF096
:105430000012300022180022080022080032080062
:105440001E10000E200000000000000020000020C0
:105450000800200801FFF803FFF8062008042008D0
:1054600004200807200003000000000000000000E6
:10547000000E000E6E001FF30031B10020B10020BD
:10548000B1003191001F13002E1E00200E003000CD
:1054900000000004000807FFF80FFFF800100800E4
:1054A0002000002000002008003FF8001FF8000046
:1054B0000800000000000000000000200800200894
:1054C000002008063FF8063FF8000008000008002A
:1054D00000080000000000000000000000000000C4
:1054E00003000003002001002001002003063FFE0E
:1054F000063FFC0000000000000000000000000467
:10550000000807FFF80FFFF8000188000300002FD4
:10551000C00038F800203800200800000800000013
:105520000000000000000400080400080400080750
:10553000FFF80FFFF8000008000008000008000056
:1055400000000000002008003FF8003FF8001008AD
:10555000002000003FF8003FF80010080020000085
:105560003FF8003FF8000008000000002008003F5E
:10557000F8003FF80010080010000020000020088C
:10558000003FF8001FF800000800000000000000C5
:1055900007C0000FF000183000300800200800207D
:1055A00008003008001830000FF00007C0000000AD
:1055B000000000002001003FFF003FFF001011002D
:1055C0002009002008002008003038001FF0000FDC
:1055D000C00000000000000007C0001FF0003818E5
:1055E000002008002008002009001011001FFF0003
:1055F0003FFF0000010000000020080020080020FC
:1056000008003FF8003FF8000808001008002008D4
:10561000002000003000003000000000000000000A
:105620000000000C78001E18003308002308002139
:10563000080021880021980030F000386000000048
:1056400000000000200000200000200000FFF00308
:10565000FFF80020080020080020080000300000AB
:1056600000000000000000002000003FF0007FF874
:10567000000018000008000008002010003FF8009B
:105680007FF000001000000000000000200000304B
:1056900000003C00003F800023F000007800007014
:1056A000002380003C0000300000200000200000AB
:1056B0003C00003FE00023F80000E0002700003E2F
:1056C00000003FE00021F80001E0003E0000200063
:1056D000000000002008002008003838003E680064
:1056E00027800003C8002CF800383800201800205C
:1056F00008000000000000002000003003003C0112
:10570000003F830023EC000070002380003C000079
:105710002000002000000000000000000000003811
:10572000080020380020F80023E8002F88003E08F9
:105730000038080020180000700000000000000081
:10574000000000000000000000000000080000143D
:10575000001FF7FC300006200002000000000000DF
:105760000000000000000000000000000000000039
:105770000000FFFFFF00000000000000000000002C
:1057800000000000000000000000200002300006C1
:105790001FF7FC00140000080000000000000000DB
:1057A0000000000000000000000000180000600081
:1057B0000040000040000020000010000008000031
:1057C0000400000400000C000010000000000000B5
:1057D00000000000010203040607080900000000A1
:1057E00001020304045800080000002068080000BB
:1057F000140700089458000868080020F009000009
:10580000B0300008011802170FF20102FF0A01FF71
:10581000017D72E03CC0602001046E60C0803A1FD0
:1058200082000D6C061F30A0E0C0C040E0A0980FC1
:105830002810180C1C0F1C24060203010101808093
:105840007FFD076F01010302020446040602010105
:10585000397E02FF02016E3AC0051AE0010572F0BE
:10586000F0E08008136BFF808040607F3F3F7FFF48
:105870001E1F1F1730206040853E0E3F81C0400133
:105880004A7F070B6B40C08001FF011B3201821071
:045890001324F400E9
:04000005080000ED02
:00000001FF
